{
  "_format": "hh-sol-artifact-1",
  "contractName": "freeBTC",
  "sourceName": "contracts/freeBTC.sol",
  "abi": [
    {
      "inputs": [],
      "stateMutability": "nonpayable",
      "type": "constructor"
    },
    {
      "inputs": [],
      "name": "btcLeft",
      "outputs": [
        {
          "internalType": "uint256",
          "name": "",
          "type": "uint256"
        }
      ],
      "stateMutability": "view",
      "type": "function"
    },
    {
      "inputs": [],
      "name": "sendBTC",
      "outputs": [],
      "stateMutability": "nonpayable",
      "type": "function"
    }
  ],
  "bytecode": "0x60806040526103e860005534801561001657600080fd5b506100426040518060600160405280603c8152602001610734603c913961004760201b6100cf1760201c565b6101ca565b6100e38160405160240161005b9190610148565b6040516020818303038152906040527f41304fac000000000000000000000000000000000000000000000000000000007bffffffffffffffffffffffffffffffffffffffffffffffffffffffff19166020820180517bffffffffffffffffffffffffffffffffffffffffffffffffffffffff83818316178352505050506100e660201b60201c565b50565b60008151905060006a636f6e736f6c652e6c6f679050602083016000808483855afa5050505050565b600061011a8261016a565b6101248185610175565b9350610134818560208601610186565b61013d816101b9565b840191505092915050565b60006020820190508181036000830152610162818461010f565b905092915050565b600081519050919050565b600082825260208201905092915050565b60005b838110156101a4578082015181840152602081019050610189565b838111156101b3576000848401525b50505050565b6000601f19601f8301169050919050565b61055b806101d96000396000f3fe608060405234801561001057600080fd5b50600436106100365760003560e01c80630eaa4a021461003b578063c311709614610045575b600080fd5b610043610063565b005b61004d6100a1565b60405161005a91906103a2565b60405180910390f35b61012c60008082825461007691906103d9565b9250508190555061009f6040518060600160405280603981526020016104bd6039913933610168565b565b60006100c76040518060600160405280603081526020016104f660309139600054610204565b600054905090565b610165816040516024016100e39190610320565b6040516020818303038152906040527f41304fac000000000000000000000000000000000000000000000000000000007bffffffffffffffffffffffffffffffffffffffffffffffffffffffff19166020820180517bffffffffffffffffffffffffffffffffffffffffffffffffffffffff83818316178352505050506102a0565b50565b610200828260405160240161017e929190610342565b6040516020818303038152906040527f319af333000000000000000000000000000000000000000000000000000000007bffffffffffffffffffffffffffffffffffffffffffffffffffffffff19166020820180517bffffffffffffffffffffffffffffffffffffffffffffffffffffffff83818316178352505050506102a0565b5050565b61029c828260405160240161021a929190610372565b6040516020818303038152906040527f9710a9d0000000000000000000000000000000000000000000000000000000007bffffffffffffffffffffffffffffffffffffffffffffffffffffffff19166020820180517bffffffffffffffffffffffffffffffffffffffffffffffffffffffff83818316178352505050506102a0565b5050565b60008151905060006a636f6e736f6c652e6c6f679050602083016000808483855afa5050505050565b6102d28161040d565b82525050565b60006102e3826103bd565b6102ed81856103c8565b93506102fd818560208601610449565b610306816104ab565b840191505092915050565b61031a8161043f565b82525050565b6000602082019050818103600083015261033a81846102d8565b905092915050565b6000604082019050818103600083015261035c81856102d8565b905061036b60208301846102c9565b9392505050565b6000604082019050818103600083015261038c81856102d8565b905061039b6020830184610311565b9392505050565b60006020820190506103b76000830184610311565b92915050565b600081519050919050565b600082825260208201905092915050565b60006103e48261043f565b91506103ef8361043f565b9250828210156104025761040161047c565b5b828203905092915050565b60006104188261041f565b9050919050565b600073ffffffffffffffffffffffffffffffffffffffff82169050919050565b6000819050919050565b60005b8381101561046757808201518184015260208101905061044c565b83811115610476576000848401525b50505050565b7f4e487b7100000000000000000000000000000000000000000000000000000000600052601160045260246000fd5b6000601f19601f830116905091905056fe33303042544320686173206265656e2073656e7420746f202573207768696368206973207468652077696e6e657220666f7220746f646179215765207374696c6c206861766520256420425443206c6566742120496e7669746520796f757220667269656e64732120a2646970667358221220705bf00c01b1a8b4af1535c07d1681cb80dec3e57cf3f78d2271ab90a3a9e98e64736f6c63430008040033467265652042544320697320757020666f722067726162732c2041206c75636b792077696e6e65722077696c6c206861766520333030425443212121",
  "linkReferences": {},
  "deployedLinkReferences": {}
}