{
  "_format": "hh-sol-artifact-1",
  "contractName": "freeBTC",
  "sourceName": "contracts/freeBTC.sol",
  "abi": [
    {
      "inputs": [],
      "stateMutability": "nonpayable",
      "type": "constructor"
    },
    {
      "anonymous": false,
      "inputs": [
        {
          "indexed": true,
          "internalType": "address",
          "name": "from",
          "type": "address"
        },
        {
          "indexed": false,
          "internalType": "uint256",
          "name": "timestamp",
          "type": "uint256"
        },
        {
          "indexed": false,
          "internalType": "string",
          "name": "message",
          "type": "string"
        }
      ],
      "name": "Beneficiaries",
      "type": "event"
    },
    {
      "inputs": [],
      "name": "btcLeft",
      "outputs": [
        {
          "internalType": "uint256",
          "name": "",
          "type": "uint256"
        }
      ],
      "stateMutability": "view",
      "type": "function"
    },
    {
      "inputs": [],
      "name": "getAllBeneficiaries",
      "outputs": [
        {
          "components": [
            {
              "internalType": "address",
              "name": "_beneficiaries",
              "type": "address"
            },
            {
              "internalType": "uint256",
              "name": "_timestamp",
              "type": "uint256"
            },
            {
              "internalType": "string",
              "name": "_message",
              "type": "string"
            }
          ],
          "internalType": "struct freeBTC.people[]",
          "name": "",
          "type": "tuple[]"
        }
      ],
      "stateMutability": "view",
      "type": "function"
    },
    {
      "inputs": [
        {
          "internalType": "string",
          "name": "_messageFromUser",
          "type": "string"
        }
      ],
      "name": "sendBTC",
      "outputs": [],
      "stateMutability": "nonpayable",
      "type": "function"
    }
  ],
  "bytecode": "0x60806040526103e86000553480156200001757600080fd5b50620000476040518060600160405280603c815260200162000e51603c91396200004d60201b620003671760201c565b620001e1565b620000ed816040516024016200006491906200015a565b6040516020818303038152906040527f41304fac000000000000000000000000000000000000000000000000000000007bffffffffffffffffffffffffffffffffffffffffffffffffffffffff19166020820180517bffffffffffffffffffffffffffffffffffffffffffffffffffffffff8381831617835250505050620000f060201b60201c565b50565b60008151905060006a636f6e736f6c652e6c6f679050602083016000808483855afa5050505050565b600062000126826200017e565b62000132818562000189565b9350620001448185602086016200019a565b6200014f81620001d0565b840191505092915050565b6000602082019050818103600083015262000176818462000119565b905092915050565b600081519050919050565b600082825260208201905092915050565b60005b83811015620001ba5780820151818401526020810190506200019d565b83811115620001ca576000848401525b50505050565b6000601f19601f8301169050919050565b610c6080620001f16000396000f3fe608060405234801561001057600080fd5b50600436106100415760003560e01c80632f14bae8146100465780635e36e25d14610064578063c311709614610080575b600080fd5b61004e61009e565b60405161005b91906108c4565b60405180910390f35b61007e600480360381019061007991906106fc565b6101ef565b005b610088610339565b604051610095919061097d565b60405180910390f35b60606001805480602002602001604051908101604052809291908181526020016000905b828210156101e657838290600052602060002090600302016040518060600160405290816000820160009054906101000a900473ffffffffffffffffffffffffffffffffffffffff1673ffffffffffffffffffffffffffffffffffffffff1673ffffffffffffffffffffffffffffffffffffffff1681526020016001820154815260200160028201805461015590610b02565b80601f016020809104026020016040519081016040528092919081815260200182805461018190610b02565b80156101ce5780601f106101a3576101008083540402835291602001916101ce565b820191906000526020600020905b8154815290600101906020018083116101b157829003601f168201915b505050505081525050815260200190600101906100c2565b50505050905090565b600160405180606001604052803373ffffffffffffffffffffffffffffffffffffffff16815260200142815260200183815250908060018154018082558091505060019003906000526020600020906003020160009091909190915060008201518160000160006101000a81548173ffffffffffffffffffffffffffffffffffffffff021916908373ffffffffffffffffffffffffffffffffffffffff1602179055506020820151816001015560408201518160020190805190602001906102b89291906105f1565b5050503373ffffffffffffffffffffffffffffffffffffffff167f8e319a4a222c671d274bb8c0d5d82783d6a0bcbda7f83d4b228f9c2881f7994e4283604051610303929190610998565b60405180910390a261032e604051806060016040528060268152602001610bd5602691393383610400565b61033661049f565b50565b600061035f604051806060016040528060308152602001610bfb6030913960005461052c565b600054905090565b6103fd8160405160240161037b91906108e6565b6040516020818303038152906040527f41304fac000000000000000000000000000000000000000000000000000000007bffffffffffffffffffffffffffffffffffffffffffffffffffffffff19166020820180517bffffffffffffffffffffffffffffffffffffffffffffffffffffffff83818316178352505050506105c8565b50565b61049a83838360405160240161041893929190610908565b6040516020818303038152906040527fe0e9ad4f000000000000000000000000000000000000000000000000000000007bffffffffffffffffffffffffffffffffffffffffffffffffffffffff19166020820180517bffffffffffffffffffffffffffffffffffffffffffffffffffffffff83818316178352505050506105c8565b505050565b61052a6040516024016040516020818303038152906040527f51973ec9000000000000000000000000000000000000000000000000000000007bffffffffffffffffffffffffffffffffffffffffffffffffffffffff19166020820180517bffffffffffffffffffffffffffffffffffffffffffffffffffffffff83818316178352505050506105c8565b565b6105c4828260405160240161054292919061094d565b6040516020818303038152906040527f9710a9d0000000000000000000000000000000000000000000000000000000007bffffffffffffffffffffffffffffffffffffffffffffffffffffffff19166020820180517bffffffffffffffffffffffffffffffffffffffffffffffffffffffff83818316178352505050506105c8565b5050565b60008151905060006a636f6e736f6c652e6c6f679050602083016000808483855afa5050505050565b8280546105fd90610b02565b90600052602060002090601f01602090048101928261061f5760008555610666565b82601f1061063857805160ff1916838001178555610666565b82800160010185558215610666579182015b8281111561066557825182559160200191906001019061064a565b5b5090506106739190610677565b5090565b5b80821115610690576000816000905550600101610678565b5090565b60006106a76106a2846109ed565b6109c8565b9050828152602081018484840111156106bf57600080fd5b6106ca848285610ac0565b509392505050565b600082601f8301126106e357600080fd5b81356106f3848260208601610694565b91505092915050565b60006020828403121561070e57600080fd5b600082013567ffffffffffffffff81111561072857600080fd5b610734848285016106d2565b91505092915050565b60006107498383610856565b905092915050565b61075a81610a84565b82525050565b61076981610a84565b82525050565b600061077a82610a2e565b6107848185610a51565b93508360208202850161079685610a1e565b8060005b858110156107d257848403895281516107b3858261073d565b94506107be83610a44565b925060208a0199505060018101905061079a565b50829750879550505050505092915050565b60006107ef82610a39565b6107f98185610a62565b9350610809818560208601610acf565b61081281610bc3565b840191505092915050565b600061082882610a39565b6108328185610a73565b9350610842818560208601610acf565b61084b81610bc3565b840191505092915050565b600060608301600083015161086e6000860182610751565b50602083015161088160208601826108a6565b506040830151848203604086015261089982826107e4565b9150508091505092915050565b6108af81610ab6565b82525050565b6108be81610ab6565b82525050565b600060208201905081810360008301526108de818461076f565b905092915050565b60006020820190508181036000830152610900818461081d565b905092915050565b60006060820190508181036000830152610922818661081d565b90506109316020830185610760565b8181036040830152610943818461081d565b9050949350505050565b60006040820190508181036000830152610967818561081d565b905061097660208301846108b5565b9392505050565b600060208201905061099260008301846108b5565b92915050565b60006040820190506109ad60008301856108b5565b81810360208301526109bf818461081d565b90509392505050565b60006109d26109e3565b90506109de8282610b34565b919050565b6000604051905090565b600067ffffffffffffffff821115610a0857610a07610b94565b5b610a1182610bc3565b9050602081019050919050565b6000819050602082019050919050565b600081519050919050565b600081519050919050565b6000602082019050919050565b600082825260208201905092915050565b600082825260208201905092915050565b600082825260208201905092915050565b6000610a8f82610a96565b9050919050565b600073ffffffffffffffffffffffffffffffffffffffff82169050919050565b6000819050919050565b82818337600083830152505050565b60005b83811015610aed578082015181840152602081019050610ad2565b83811115610afc576000848401525b50505050565b60006002820490506001821680610b1a57607f821691505b60208210811415610b2e57610b2d610b65565b5b50919050565b610b3d82610bc3565b810181811067ffffffffffffffff82111715610b5c57610b5b610b94565b5b80604052505050565b7f4e487b7100000000000000000000000000000000000000000000000000000000600052602260045260246000fd5b7f4e487b7100000000000000000000000000000000000000000000000000000000600052604160045260246000fd5b6000601f19601f830116905091905056fe257320736169642025732c20736f2077652073656e642068696d2f68657220333030627463215765207374696c6c206861766520256420425443206c6566742120496e7669746520796f757220667269656e64732120a264697066735822122046de18e23d0da1468a7e80c50a8acca88cee13ce513a5523254d7666d8f62e0064736f6c63430008040033467265652042544320697320757020666f722067726162732c2041206c75636b792077696e6e65722077696c6c206861766520333030425443212121",
  "linkReferences": {},
  "deployedLinkReferences": {}
}