{
  "_format": "hh-sol-artifact-1",
  "contractName": "freeBTC",
  "sourceName": "contracts/freeBTC.sol",
  "abi": [
    {
      "inputs": [],
      "stateMutability": "payable",
      "type": "constructor"
    },
    {
      "anonymous": false,
      "inputs": [
        {
          "indexed": true,
          "internalType": "address",
          "name": "from",
          "type": "address"
        },
        {
          "indexed": false,
          "internalType": "uint256",
          "name": "timestamp",
          "type": "uint256"
        },
        {
          "indexed": false,
          "internalType": "string",
          "name": "message",
          "type": "string"
        }
      ],
      "name": "Beneficiaries",
      "type": "event"
    },
    {
      "inputs": [],
      "name": "getAllBeneficiaries",
      "outputs": [
        {
          "components": [
            {
              "internalType": "address",
              "name": "_beneficiaries",
              "type": "address"
            },
            {
              "internalType": "uint256",
              "name": "_timestamp",
              "type": "uint256"
            },
            {
              "internalType": "string",
              "name": "_message",
              "type": "string"
            }
          ],
          "internalType": "struct freeBTC.people[]",
          "name": "",
          "type": "tuple[]"
        }
      ],
      "stateMutability": "view",
      "type": "function"
    },
    {
      "inputs": [
        {
          "internalType": "address",
          "name": "",
          "type": "address"
        }
      ],
      "name": "lastBeneficiary",
      "outputs": [
        {
          "internalType": "uint256",
          "name": "",
          "type": "uint256"
        }
      ],
      "stateMutability": "view",
      "type": "function"
    },
    {
      "inputs": [
        {
          "internalType": "string",
          "name": "_messageFromUser",
          "type": "string"
        }
      ],
      "name": "sendBTC",
      "outputs": [],
      "stateMutability": "nonpayable",
      "type": "function"
    }
  ],
  "bytecode": "0x6080604052606444426200001491906200002c565b62000020919062000093565b60008190555062000129565b6000620000398262000089565b9150620000468362000089565b9250827fffffffffffffffffffffffffffffffffffffffffffffffffffffffffffffffff038211156200007e576200007d620000cb565b5b828201905092915050565b6000819050919050565b6000620000a08262000089565b9150620000ad8362000089565b925082620000c057620000bf620000fa565b5b828206905092915050565b7f4e487b7100000000000000000000000000000000000000000000000000000000600052601160045260246000fd5b7f4e487b7100000000000000000000000000000000000000000000000000000000600052601260045260246000fd5b61103380620001396000396000f3fe608060405234801561001057600080fd5b50600436106100415760003560e01c80632f14bae8146100465780635e36e25d14610064578063de295c7914610080575b600080fd5b61004e6100b0565b60405161005b9190610ab6565b60405180910390f35b61007e6004803603810190610079919061084d565b610201565b005b61009a60048036038101906100959190610824565b610588565b6040516100a79190610bad565b60405180910390f35b60606002805480602002602001604051908101604052809291908181526020016000905b828210156101f857838290600052602060002090600302016040518060600160405290816000820160009054906101000a900473ffffffffffffffffffffffffffffffffffffffff1673ffffffffffffffffffffffffffffffffffffffff1673ffffffffffffffffffffffffffffffffffffffff1681526020016001820154815260200160028201805461016790610d93565b80601f016020809104026020016040519081016040528092919081815260200182805461019390610d93565b80156101e05780601f106101b5576101008083540402835291602001916101e0565b820191906000526020600020905b8154815290600101906020018083116101c357829003601f168201915b505050505081525050815260200190600101906100d4565b50505050905090565b42610384600160003373ffffffffffffffffffffffffffffffffffffffff1673ffffffffffffffffffffffffffffffffffffffff1681526020019081526020016000205461024f9190610cbf565b1061028f576040517f08c379a000000000000000000000000000000000000000000000000000000000815260040161028690610b4d565b60405180910390fd5b42600160003373ffffffffffffffffffffffffffffffffffffffff1673ffffffffffffffffffffffffffffffffffffffff16815260200190815260200160002081905550600260405180606001604052803373ffffffffffffffffffffffffffffffffffffffff16815260200142815260200183815250908060018154018082558091505060019003906000526020600020906003020160009091909190915060008201518160000160006101000a81548173ffffffffffffffffffffffffffffffffffffffff021916908373ffffffffffffffffffffffffffffffffffffffff16021790555060208201518160010155604082015181600201908051906020019061039c929190610704565b5050503373ffffffffffffffffffffffffffffffffffffffff167f8e319a4a222c671d274bb8c0d5d82783d6a0bcbda7f83d4b228f9c2881f7994e42836040516103e7929190610bc8565b60405180910390a2606444426000546104009190610cbf565b61040a9190610cbf565b6104149190610df6565b60008190555060326000541015610585576104646040518060400160405280600781526020017f257320776f6e2100000000000000000000000000000000000000000000000000815250336105a0565b600066038d7ea4c680009050478111156104b3576040517f08c379a00000000000000000000000000000000000000000000000000000000081526004016104aa90610b6d565b60405180910390fd5b60003373ffffffffffffffffffffffffffffffffffffffff16826040516104d990610aa1565b60006040518083038185875af1925050503d8060008114610516576040519150601f19603f3d011682016040523d82523d6000602084013e61051b565b606091505b505090508061055f576040517f08c379a000000000000000000000000000000000000000000000000000000000815260040161055690610b8d565b60405180910390fd5b610582604051806060016040528060288152602001610fd660289139338561063c565b50505b50565b60016020528060005260406000206000915090505481565b61063882826040516024016105b6929190610ad8565b6040516020818303038152906040527f319af333000000000000000000000000000000000000000000000000000000007bffffffffffffffffffffffffffffffffffffffffffffffffffffffff19166020820180517bffffffffffffffffffffffffffffffffffffffffffffffffffffffff83818316178352505050506106db565b5050565b6106d683838360405160240161065493929190610b08565b6040516020818303038152906040527fe0e9ad4f000000000000000000000000000000000000000000000000000000007bffffffffffffffffffffffffffffffffffffffffffffffffffffffff19166020820180517bffffffffffffffffffffffffffffffffffffffffffffffffffffffff83818316178352505050506106db565b505050565b60008151905060006a636f6e736f6c652e6c6f679050602083016000808483855afa5050505050565b82805461071090610d93565b90600052602060002090601f0160209004810192826107325760008555610779565b82601f1061074b57805160ff1916838001178555610779565b82800160010185558215610779579182015b8281111561077857825182559160200191906001019061075d565b5b509050610786919061078a565b5090565b5b808211156107a357600081600090555060010161078b565b5090565b60006107ba6107b584610c1d565b610bf8565b9050828152602081018484840111156107d257600080fd5b6107dd848285610d51565b509392505050565b6000813590506107f481610fbe565b92915050565b600082601f83011261080b57600080fd5b813561081b8482602086016107a7565b91505092915050565b60006020828403121561083657600080fd5b6000610844848285016107e5565b91505092915050565b60006020828403121561085f57600080fd5b600082013567ffffffffffffffff81111561087957600080fd5b610885848285016107fa565b91505092915050565b600061089a8383610a33565b905092915050565b6108ab81610d15565b82525050565b6108ba81610d15565b82525050565b60006108cb82610c5e565b6108d58185610c81565b9350836020820285016108e785610c4e565b8060005b858110156109235784840389528151610904858261088e565b945061090f83610c74565b925060208a019950506001810190506108eb565b50829750879550505050505092915050565b600061094082610c69565b61094a8185610c9d565b935061095a818560208601610d60565b61096381610ee3565b840191505092915050565b600061097982610c69565b6109838185610cae565b9350610993818560208601610d60565b61099c81610ee3565b840191505092915050565b60006109b4601783610cae565b91506109bf82610ef4565b602082019050919050565b60006109d7603183610cae565b91506109e282610f1d565b604082019050919050565b60006109fa600083610c92565b9150610a0582610f6c565b600082019050919050565b6000610a1d602283610cae565b9150610a2882610f6f565b604082019050919050565b6000606083016000830151610a4b60008601826108a2565b506020830151610a5e6020860182610a83565b5060408301518482036040860152610a768282610935565b9150508091505092915050565b610a8c81610d47565b82525050565b610a9b81610d47565b82525050565b6000610aac826109ed565b9150819050919050565b60006020820190508181036000830152610ad081846108c0565b905092915050565b60006040820190508181036000830152610af2818561096e565b9050610b0160208301846108b1565b9392505050565b60006060820190508181036000830152610b22818661096e565b9050610b3160208301856108b1565b8181036040830152610b43818461096e565b9050949350505050565b60006020820190508181036000830152610b66816109a7565b9050919050565b60006020820190508181036000830152610b86816109ca565b9050919050565b60006020820190508181036000830152610ba681610a10565b9050919050565b6000602082019050610bc26000830184610a92565b92915050565b6000604082019050610bdd6000830185610a92565b8181036020830152610bef818461096e565b90509392505050565b6000610c02610c13565b9050610c0e8282610dc5565b919050565b6000604051905090565b600067ffffffffffffffff821115610c3857610c37610eb4565b5b610c4182610ee3565b9050602081019050919050565b6000819050602082019050919050565b600081519050919050565b600081519050919050565b6000602082019050919050565b600082825260208201905092915050565b600081905092915050565b600082825260208201905092915050565b600082825260208201905092915050565b6000610cca82610d47565b9150610cd583610d47565b9250827fffffffffffffffffffffffffffffffffffffffffffffffffffffffffffffffff03821115610d0a57610d09610e27565b5b828201905092915050565b6000610d2082610d27565b9050919050565b600073ffffffffffffffffffffffffffffffffffffffff82169050919050565b6000819050919050565b82818337600083830152505050565b60005b83811015610d7e578082015181840152602081019050610d63565b83811115610d8d576000848401525b50505050565b60006002820490506001821680610dab57607f821691505b60208210811415610dbf57610dbe610e85565b5b50919050565b610dce82610ee3565b810181811067ffffffffffffffff82111715610ded57610dec610eb4565b5b80604052505050565b6000610e0182610d47565b9150610e0c83610d47565b925082610e1c57610e1b610e56565b5b828206905092915050565b7f4e487b7100000000000000000000000000000000000000000000000000000000600052601160045260246000fd5b7f4e487b7100000000000000000000000000000000000000000000000000000000600052601260045260246000fd5b7f4e487b7100000000000000000000000000000000000000000000000000000000600052602260045260246000fd5b7f4e487b7100000000000000000000000000000000000000000000000000000000600052604160045260246000fd5b6000601f19601f8301169050919050565b7f54727920616761696e2061667465722031354d696e7321000000000000000000600082015250565b7f54686520436f6e747261637420646f65736e2774206861766520656e6f75676860008201527f2045544820746f2067697665206e6f7721000000000000000000000000000000602082015250565b50565b7f4661696c20746f207769746864726177204554482066726f6d20436f6e74726160008201527f6374000000000000000000000000000000000000000000000000000000000000602082015250565b610fc781610d15565b8114610fd257600080fd5b5056fe257320736169642025732c20736f2077652073656e642068696d2f68657220302e30303145544821a2646970667358221220a1c0af8608e267e48244c410903276292075b280b57501bacc5819661f6aa80b64736f6c63430008040033",
  "linkReferences": {},
  "deployedLinkReferences": {}
}