{
  "_format": "hh-sol-artifact-1",
  "contractName": "freeETH",
  "sourceName": "contracts/freeETH.sol",
  "abi": [
    {
      "inputs": [],
      "stateMutability": "payable",
      "type": "constructor"
    },
    {
      "anonymous": false,
      "inputs": [
        {
          "indexed": true,
          "internalType": "address",
          "name": "from",
          "type": "address"
        },
        {
          "indexed": false,
          "internalType": "uint256",
          "name": "timestamp",
          "type": "uint256"
        },
        {
          "indexed": false,
          "internalType": "string",
          "name": "message",
          "type": "string"
        }
      ],
      "name": "Beneficiaries",
      "type": "event"
    },
    {
      "anonymous": false,
      "inputs": [
        {
          "indexed": false,
          "internalType": "string",
          "name": "userStatus",
          "type": "string"
        }
      ],
      "name": "WinOrLoss",
      "type": "event"
    },
    {
      "inputs": [],
      "name": "getAllBeneficiaries",
      "outputs": [
        {
          "components": [
            {
              "internalType": "address",
              "name": "_beneficiaries",
              "type": "address"
            },
            {
              "internalType": "uint256",
              "name": "_timestamp",
              "type": "uint256"
            },
            {
              "internalType": "string",
              "name": "_message",
              "type": "string"
            }
          ],
          "internalType": "struct freeETH.people[]",
          "name": "",
          "type": "tuple[]"
        }
      ],
      "stateMutability": "view",
      "type": "function"
    },
    {
      "inputs": [
        {
          "internalType": "address",
          "name": "",
          "type": "address"
        }
      ],
      "name": "lastBeneficiary",
      "outputs": [
        {
          "internalType": "uint256",
          "name": "",
          "type": "uint256"
        }
      ],
      "stateMutability": "view",
      "type": "function"
    },
    {
      "inputs": [
        {
          "internalType": "string",
          "name": "_messageFromUser",
          "type": "string"
        }
      ],
      "name": "sendETH",
      "outputs": [],
      "stateMutability": "nonpayable",
      "type": "function"
    }
  ],
  "bytecode": "0x60806040526200004f6040518060400160405280600e81526020017f4465706c6f79696e672e2e2e2e2e0000000000000000000000000000000000008152506200005560201b620005601760201c565b620001e9565b620000f5816040516024016200006c919062000162565b6040516020818303038152906040527f41304fac000000000000000000000000000000000000000000000000000000007bffffffffffffffffffffffffffffffffffffffffffffffffffffffff19166020820180517bffffffffffffffffffffffffffffffffffffffffffffffffffffffff8381831617835250505050620000f860201b60201c565b50565b60008151905060006a636f6e736f6c652e6c6f679050602083016000808483855afa5050505050565b60006200012e8262000186565b6200013a818562000191565b93506200014c818560208601620001a2565b6200015781620001d8565b840191505092915050565b600060208201905081810360008301526200017e818462000121565b905092915050565b600081519050919050565b600082825260208201905092915050565b60005b83811015620001c2578082015181840152602081019050620001a5565b83811115620001d2576000848401525b50505050565b6000601f19601f8301169050919050565b61101480620001f96000396000f3fe608060405234801561001057600080fd5b50600436106100415760003560e01c80632f14bae81461004657806356e4f86b14610064578063de295c7914610080575b600080fd5b61004e6100b0565b60405161005b9190610a96565b60405180910390f35b61007e6004803603810190610079919061080a565b610201565b005b61009a600480360381019061009591906107e1565b610548565b6040516100a79190610b9f565b60405180910390f35b60606002805480602002602001604051908101604052809291908181526020016000905b828210156101f857838290600052602060002090600302016040518060600160405290816000820160009054906101000a900473ffffffffffffffffffffffffffffffffffffffff1673ffffffffffffffffffffffffffffffffffffffff1673ffffffffffffffffffffffffffffffffffffffff1681526020016001820154815260200160028201805461016790610d85565b80601f016020809104026020016040519081016040528092919081815260200182805461019390610d85565b80156101e05780601f106101b5576101008083540402835291602001916101e0565b820191906000526020600020905b8154815290600101906020018083116101c357829003601f168201915b505050505081525050815260200190600101906100d4565b50505050905090565b42610384600160003373ffffffffffffffffffffffffffffffffffffffff1673ffffffffffffffffffffffffffffffffffffffff1681526020019081526020016000205461024f9190610cb1565b101561050f5742600160003373ffffffffffffffffffffffffffffffffffffffff1673ffffffffffffffffffffffffffffffffffffffff168152602001908152602001600020819055507f90eb4005dc313e4187042e1c29c58a6d3b2fe70169c65788a94e2b9d32a03ec86040516102c690610b1f565b60405180910390a1600067016345785d8a000090504781116104d35760003373ffffffffffffffffffffffffffffffffffffffff168260405161030890610a81565b60006040518083038185875af1925050503d8060008114610345576040519150601f19603f3d011682016040523d82523d6000602084013e61034a565b606091505b505090508061038e576040517f08c379a000000000000000000000000000000000000000000000000000000000815260040161038590610b7f565b60405180910390fd5b6103b1604051806060016040528060288152602001610fb76028913933856105f9565b600260405180606001604052803373ffffffffffffffffffffffffffffffffffffffff16815260200142815260200185815250908060018154018082558091505060019003906000526020600020906003020160009091909190915060008201518160000160006101000a81548173ffffffffffffffffffffffffffffffffffffffff021916908373ffffffffffffffffffffffffffffffffffffffff16021790555060208201518160010155604082015181600201908051906020019061047a9291906106c1565b5050503373ffffffffffffffffffffffffffffffffffffffff167f8e319a4a222c671d274bb8c0d5d82783d6a0bcbda7f83d4b228f9c2881f7994e42856040516104c5929190610bba565b60405180910390a250610509565b7f90eb4005dc313e4187042e1c29c58a6d3b2fe70169c65788a94e2b9d32a03ec860405161050090610b3f565b60405180910390a15b50610545565b7f90eb4005dc313e4187042e1c29c58a6d3b2fe70169c65788a94e2b9d32a03ec860405161053c90610b5f565b60405180910390a15b50565b60016020528060005260406000206000915090505481565b6105f6816040516024016105749190610ab8565b6040516020818303038152906040527f41304fac000000000000000000000000000000000000000000000000000000007bffffffffffffffffffffffffffffffffffffffffffffffffffffffff19166020820180517bffffffffffffffffffffffffffffffffffffffffffffffffffffffff8381831617835250505050610698565b50565b61069383838360405160240161061193929190610ada565b6040516020818303038152906040527fe0e9ad4f000000000000000000000000000000000000000000000000000000007bffffffffffffffffffffffffffffffffffffffffffffffffffffffff19166020820180517bffffffffffffffffffffffffffffffffffffffffffffffffffffffff8381831617835250505050610698565b505050565b60008151905060006a636f6e736f6c652e6c6f679050602083016000808483855afa5050505050565b8280546106cd90610d85565b90600052602060002090601f0160209004810192826106ef5760008555610736565b82601f1061070857805160ff1916838001178555610736565b82800160010185558215610736579182015b8281111561073557825182559160200191906001019061071a565b5b5090506107439190610747565b5090565b5b80821115610760576000816000905550600101610748565b5090565b600061077761077284610c0f565b610bea565b90508281526020810184848401111561078f57600080fd5b61079a848285610d43565b509392505050565b6000813590506107b181610f9f565b92915050565b600082601f8301126107c857600080fd5b81356107d8848260208601610764565b91505092915050565b6000602082840312156107f357600080fd5b6000610801848285016107a2565b91505092915050565b60006020828403121561081c57600080fd5b600082013567ffffffffffffffff81111561083657600080fd5b610842848285016107b7565b91505092915050565b60006108578383610a13565b905092915050565b61086881610d07565b82525050565b61087781610d07565b82525050565b600061088882610c50565b6108928185610c73565b9350836020820285016108a485610c40565b8060005b858110156108e057848403895281516108c1858261084b565b94506108cc83610c66565b925060208a019950506001810190506108a8565b50829750879550505050505092915050565b60006108fd82610c5b565b6109078185610c8f565b9350610917818560208601610d52565b61092081610e75565b840191505092915050565b600061093682610c5b565b6109408185610ca0565b9350610950818560208601610d52565b61095981610e75565b840191505092915050565b6000610971601d83610ca0565b915061097c82610e86565b602082019050919050565b6000610994604283610ca0565b915061099f82610eaf565b606082019050919050565b60006109b7601783610ca0565b91506109c282610f24565b602082019050919050565b60006109da600083610c84565b91506109e582610f4d565b600082019050919050565b60006109fd602283610ca0565b9150610a0882610f50565b604082019050919050565b6000606083016000830151610a2b600086018261085f565b506020830151610a3e6020860182610a63565b5060408301518482036040860152610a5682826108f2565b9150508091505092915050565b610a6c81610d39565b82525050565b610a7b81610d39565b82525050565b6000610a8c826109cd565b9150819050919050565b60006020820190508181036000830152610ab0818461087d565b905092915050565b60006020820190508181036000830152610ad2818461092b565b905092915050565b60006060820190508181036000830152610af4818661092b565b9050610b03602083018561086e565b8181036040830152610b15818461092b565b9050949350505050565b60006020820190508181036000830152610b3881610964565b9050919050565b60006020820190508181036000830152610b5881610987565b9050919050565b60006020820190508181036000830152610b78816109aa565b9050919050565b60006020820190508181036000830152610b98816109f0565b9050919050565b6000602082019050610bb46000830184610a72565b92915050565b6000604082019050610bcf6000830185610a72565b8181036020830152610be1818461092b565b90509392505050565b6000610bf4610c05565b9050610c008282610db7565b919050565b6000604051905090565b600067ffffffffffffffff821115610c2a57610c29610e46565b5b610c3382610e75565b9050602081019050919050565b6000819050602082019050919050565b600081519050919050565b600081519050919050565b6000602082019050919050565b600082825260208201905092915050565b600081905092915050565b600082825260208201905092915050565b600082825260208201905092915050565b6000610cbc82610d39565b9150610cc783610d39565b9250827fffffffffffffffffffffffffffffffffffffffffffffffffffffffffffffffff03821115610cfc57610cfb610de8565b5b828201905092915050565b6000610d1282610d19565b9050919050565b600073ffffffffffffffffffffffffffffffffffffffff82169050919050565b6000819050919050565b82818337600083830152505050565b60005b83811015610d70578082015181840152602081019050610d55565b83811115610d7f576000848401525b50505050565b60006002820490506001821680610d9d57607f821691505b60208210811415610db157610db0610e17565b5b50919050565b610dc082610e75565b810181811067ffffffffffffffff82111715610ddf57610dde610e46565b5b80604052505050565b7f4e487b7100000000000000000000000000000000000000000000000000000000600052601160045260246000fd5b7f4e487b7100000000000000000000000000000000000000000000000000000000600052602260045260246000fd5b7f4e487b7100000000000000000000000000000000000000000000000000000000600052604160045260246000fd5b6000601f19601f8301169050919050565b7f596f75206a75737420776f6e2061206672656520302e30303145544821000000600082015250565b7f54686520436f6e747261637420646f65736e2774206861766520656e6f75676860008201527f2045544820746f2067697665206e6f772c2054727920616761696e206c61746560208201527f7221000000000000000000000000000000000000000000000000000000000000604082015250565b7f54727920616761696e2061667465722031356d696e7321000000000000000000600082015250565b50565b7f4661696c20746f207769746864726177204554482066726f6d20436f6e74726160008201527f6374000000000000000000000000000000000000000000000000000000000000602082015250565b610fa881610d07565b8114610fb357600080fd5b5056fe257320736169642025732c20736f2077652073656e642068696d2f68657220302e30303145544821a26469706673582212201360a058e6124141b3d4e995238c4246c37c2d46ebf95fee410b85305a5b631564736f6c63430008040033",
  "linkReferences": {},
  "deployedLinkReferences": {}
}